{
  "_format": "hh-sol-artifact-1",
  "contractName": "ChildChainGaugeRegistry",
  "sourceName": "contracts/gauges/ChildChainGaugeRegistry.sol",
  "abi": [
    {
      "inputs": [
        {
          "internalType": "contract L2BalancerPseudoMinter",
          "name": "l2BalancerPseudoMinter",
          "type": "address"
        },
        {
          "internalType": "contract ILiquidityGaugeFactory",
          "name": "liquidityGaugeFactory",
          "type": "address"
        }
      ],
      "stateMutability": "nonpayable",
      "type": "constructor"
    },
    {
      "anonymous": false,
      "inputs": [
        {
          "indexed": true,
          "internalType": "contract IChildChainGauge",
          "name": "gauge",
          "type": "address"
        }
      ],
      "name": "GaugeAdded",
      "type": "event"
    },
    {
      "anonymous": false,
      "inputs": [
        {
          "indexed": true,
          "internalType": "contract IChildChainGauge",
          "name": "gauge",
          "type": "address"
        }
      ],
      "name": "GaugeRemoved",
      "type": "event"
    },
    {
      "inputs": [
        {
          "internalType": "contract IChildChainGauge",
          "name": "gauge",
          "type": "address"
        }
      ],
      "name": "addGauge",
      "outputs": [],
      "stateMutability": "nonpayable",
      "type": "function"
    },
    {
      "inputs": [
        {
          "internalType": "bytes4",
          "name": "selector",
          "type": "bytes4"
        }
      ],
      "name": "getActionId",
      "outputs": [
        {
          "internalType": "bytes32",
          "name": "",
          "type": "bytes32"
        }
      ],
      "stateMutability": "view",
      "type": "function"
    },
    {
      "inputs": [],
      "name": "getAuthorizer",
      "outputs": [
        {
          "internalType": "contract IAuthorizer",
          "name": "",
          "type": "address"
        }
      ],
      "stateMutability": "view",
      "type": "function"
    },
    {
      "inputs": [
        {
          "internalType": "uint256",
          "name": "startIndex",
          "type": "uint256"
        },
        {
          "internalType": "uint256",
          "name": "endIndex",
          "type": "uint256"
        }
      ],
      "name": "getGauges",
      "outputs": [
        {
          "internalType": "contract IChildChainGauge[]",
          "name": "",
          "type": "address[]"
        }
      ],
      "stateMutability": "view",
      "type": "function"
    },
    {
      "inputs": [],
      "name": "getVault",
      "outputs": [
        {
          "internalType": "contract IVault",
          "name": "",
          "type": "address"
        }
      ],
      "stateMutability": "view",
      "type": "function"
    },
    {
      "inputs": [
        {
          "internalType": "contract IChildChainGauge",
          "name": "gauge",
          "type": "address"
        }
      ],
      "name": "removeGauge",
      "outputs": [],
      "stateMutability": "nonpayable",
      "type": "function"
    },
    {
      "inputs": [],
      "name": "totalGauges",
      "outputs": [
        {
          "internalType": "uint256",
          "name": "",
          "type": "uint256"
        }
      ],
      "stateMutability": "view",
      "type": "function"
    }
  ],
  "bytecode": "0x61010060405234801561001157600080fd5b50604051610eaa380380610eaa8339818101604052604081101561003457600080fd5b508051602091820151604080516311b2515f60e31b81529051929391926001600160a01b03851692638d928af89260048082019391829003018186803b15801561007d57600080fd5b505afa158015610091573d6000803e3d6000fd5b505050506040513d60208110156100a757600080fd5b5051306080526001600160601b0319606091821b811660a052600160005592811b831660c0521b1660e05260805160a05160601c60c05160601c60e05160601c610d9f61010b60003950806105b35250806104c25250806104555250610d9f6000f3fe608060405234801561001057600080fd5b506004361061007d5760003560e01c8063851c1bb31161005b578063851c1bb3146101445780638d928af8146101835780639da882ac146101b4578063aaabadc5146101e75761007d565b80632ba27111146100825780633a0451451461009c57806377b8883a146100d1575b600080fd5b61008a6101ef565b60408051918252519081900360200190f35b6100cf600480360360208110156100b257600080fd5b503573ffffffffffffffffffffffffffffffffffffffff16610200565b005b6100f4600480360360408110156100e757600080fd5b50803590602001356102c2565b60408051602080825283518183015283519192839290830191858101910280838360005b83811015610130578181015183820152602001610118565b505050509050019250505060405180910390f35b61008a6004803603602081101561015a57600080fd5b50357fffffffff000000000000000000000000000000000000000000000000000000001661044f565b61018b6104c0565b6040805173ffffffffffffffffffffffffffffffffffffffff9092168252519081900360200190f35b6100cf600480360360208110156101ca57600080fd5b503573ffffffffffffffffffffffffffffffffffffffff166104e4565b61018b610854565b60006101fb60016108d4565b905090565b6102086108d8565b61021360018261091e565b61027e57604080517f08c379a000000000000000000000000000000000000000000000000000000000815260206004820152601460248201527f47415547455f4e4f545f52454749535445524544000000000000000000000000604482015290519081900360640190fd5b60405173ffffffffffffffffffffffffffffffffffffffff8216907f94ac12f5301759f065db9de7f23677e50bef009f062b028d4d4612f620f0f5fb90600090a250565b606081831061033257604080517f08c379a000000000000000000000000000000000000000000000000000000000815260206004820152600f60248201527f494e56414c49445f494e44494345530000000000000000000000000000000000604482015290519081900360640190fd5b61033c60016108d4565b8211156103aa57604080517f08c379a000000000000000000000000000000000000000000000000000000000815260206004820152601760248201527f454e445f494e4445585f4f55545f4f465f424f554e4453000000000000000000604482015290519081900360640190fd5b82820360608167ffffffffffffffff811180156103c657600080fd5b506040519080825280602002602001820160405280156103f0578160200160208202803683370190505b50905060005b828110156104445761040b6001878301610acc565b82828151811061041757fe5b73ffffffffffffffffffffffffffffffffffffffff909216602092830291909101909101526001016103f6565b509150505b92915050565b604080517f00000000000000000000000000000000000000000000000000000000000000006020808301919091527fffffffff000000000000000000000000000000000000000000000000000000008416828401528251602481840301815260449092019092528051910120919050565b7f000000000000000000000000000000000000000000000000000000000000000090565b6104ec6108d8565b6104f4610aef565b60008173ffffffffffffffffffffffffffffffffffffffff1663c45a01556040518163ffffffff1660e01b815260040160206040518083038186803b15801561053c57600080fd5b505afa158015610550573d6000803e3d6000fd5b505050506040513d602081101561056657600080fd5b5051604080517f6c71e92000000000000000000000000000000000000000000000000000000000815273ffffffffffffffffffffffffffffffffffffffff808416600483015291519293507f000000000000000000000000000000000000000000000000000000000000000090911691636c71e92091602480820192602092909190829003018186803b1580156105fc57600080fd5b505afa158015610610573d6000803e3d6000fd5b505050506040513d602081101561062657600080fd5b505161069357604080517f08c379a000000000000000000000000000000000000000000000000000000000815260206004820152601560248201527f494e56414c49445f47415547455f464143544f52590000000000000000000000604482015290519081900360640190fd5b8073ffffffffffffffffffffffffffffffffffffffff1663ce3cc8bd836040518263ffffffff1660e01b8152600401808273ffffffffffffffffffffffffffffffffffffffff16815260200191505060206040518083038186803b1580156106fa57600080fd5b505afa15801561070e573d6000803e3d6000fd5b505050506040513d602081101561072457600080fd5b505161079157604080517f08c379a000000000000000000000000000000000000000000000000000000000815260206004820152601660248201527f47415547455f4e4f545f46524f4d5f464143544f525900000000000000000000604482015290519081900360640190fd5b61079c600183610b08565b61080757604080517f08c379a000000000000000000000000000000000000000000000000000000000815260206004820152601860248201527f47415547455f414c52454144595f524547495354455245440000000000000000604482015290519081900360640190fd5b60405173ffffffffffffffffffffffffffffffffffffffff8316907f9808313031a8f4caa534c417adad16800af7317516eff29a2d37cec0ffb244db90600090a250610851610b90565b50565b600061085e6104c0565b73ffffffffffffffffffffffffffffffffffffffff1663aaabadc56040518163ffffffff1660e01b815260040160206040518083038186803b1580156108a357600080fd5b505afa1580156108b7573d6000803e3d6000fd5b505050506040513d60208110156108cd57600080fd5b5051905090565b5490565b60006109076000357fffffffff000000000000000000000000000000000000000000000000000000001661044f565b90506108516109168233610b97565b610191610c60565b73ffffffffffffffffffffffffffffffffffffffff811660009081526001830160205260408120548015610ac25783547fffffffffffffffffffffffffffffffffffffffffffffffffffffffffffffffff8083019101808214610a2757600086600001828154811061098c57fe5b600091825260209091200154875473ffffffffffffffffffffffffffffffffffffffff909116915081908890859081106109c257fe5b600091825260208083209190910180547fffffffffffffffffffffffff00000000000000000000000000000000000000001673ffffffffffffffffffffffffffffffffffffffff94851617905592909116815260018881019092526040902090830190555b8554869080610a3257fe5b6000828152602080822083017fffffffffffffffffffffffffffffffffffffffffffffffffffffffffffffffff90810180547fffffffffffffffffffffffff000000000000000000000000000000000000000016905590920190925573ffffffffffffffffffffffffffffffffffffffff8716825260018881019091526040822091909155935061044992505050565b6000915050610449565b8154600090610ade9083106064610c60565b610ae88383610c72565b9392505050565b610b0160026000541415610190610c60565b6002600055565b6000610b148383610cac565b610b8857508154600180820184556000848152602080822090930180547fffffffffffffffffffffffff00000000000000000000000000000000000000001673ffffffffffffffffffffffffffffffffffffffff861690811790915585549082528286019093526040902091909155610449565b506000610449565b6001600055565b6000610ba1610854565b73ffffffffffffffffffffffffffffffffffffffff16639be2a8848484306040518463ffffffff1660e01b8152600401808481526020018373ffffffffffffffffffffffffffffffffffffffff1681526020018273ffffffffffffffffffffffffffffffffffffffff168152602001935050505060206040518083038186803b158015610c2d57600080fd5b505afa158015610c41573d6000803e3d6000fd5b505050506040513d6020811015610c5757600080fd5b50519392505050565b81610c6e57610c6e81610cda565b5050565b6000826000018281548110610c8357fe5b60009182526020909120015473ffffffffffffffffffffffffffffffffffffffff169392505050565b73ffffffffffffffffffffffffffffffffffffffff1660009081526001919091016020526040902054151590565b7f08c379a000000000000000000000000000000000000000000000000000000000600090815260206004526007602452600a808304818106603090810160081b83860601918390049283060160101b016642414c230000300160c81b604452610851917f42414c0000000000000000000000000000000000000000000000000000000000906242414c90606490fdfea2646970667358221220809e41012a663e264fa73f9df103c36dc5be1011b081801143089752726cf80564736f6c63430007010033",
  "linkReferences": {},
  "deployedLinkReferences": {}
}