{
  "_format": "hh-sol-artifact-1",
  "contractName": "BribeVault",
  "sourceName": "contracts/BribeVault.sol",
  "abi": [
    {
      "inputs": [
        {
          "internalType": "uint256",
          "name": "_fee",
          "type": "uint256"
        },
        {
          "internalType": "uint256",
          "name": "_feeMax",
          "type": "uint256"
        },
        {
          "internalType": "address",
          "name": "_feeRecipient",
          "type": "address"
        },
        {
          "internalType": "address",
          "name": "_distributor",
          "type": "address"
        }
      ],
      "stateMutability": "nonpayable",
      "type": "constructor"
    },
    {
      "inputs": [],
      "name": "BribeAlreadyTransferred",
      "type": "error"
    },
    {
      "inputs": [],
      "name": "InvalidAddress",
      "type": "error"
    },
    {
      "inputs": [],
      "name": "InvalidAmount",
      "type": "error"
    },
    {
      "inputs": [],
      "name": "InvalidArray",
      "type": "error"
    },
    {
      "inputs": [],
      "name": "InvalidBriber",
      "type": "error"
    },
    {
      "inputs": [],
      "name": "InvalidDistributor",
      "type": "error"
    },
    {
      "inputs": [],
      "name": "InvalidFee",
      "type": "error"
    },
    {
      "inputs": [],
      "name": "InvalidFeeRecipient",
      "type": "error"
    },
    {
      "inputs": [],
      "name": "InvalidMaxFee",
      "type": "error"
    },
    {
      "inputs": [],
      "name": "InvalidRewardIdentifier",
      "type": "error"
    },
    {
      "inputs": [],
      "name": "InvalidToken",
      "type": "error"
    },
    {
      "inputs": [],
      "name": "NotDepositor",
      "type": "error"
    },
    {
      "anonymous": false,
      "inputs": [
        {
          "indexed": true,
          "internalType": "address",
          "name": "market",
          "type": "address"
        },
        {
          "indexed": true,
          "internalType": "bytes32",
          "name": "proposal",
          "type": "bytes32"
        },
        {
          "indexed": true,
          "internalType": "uint256",
          "name": "deadline",
          "type": "uint256"
        },
        {
          "indexed": false,
          "internalType": "address",
          "name": "token",
          "type": "address"
        },
        {
          "indexed": false,
          "internalType": "address",
          "name": "briber",
          "type": "address"
        },
        {
          "indexed": false,
          "internalType": "uint256",
          "name": "amount",
          "type": "uint256"
        },
        {
          "indexed": false,
          "internalType": "uint256",
          "name": "totalAmount",
          "type": "uint256"
        },
        {
          "indexed": false,
          "internalType": "uint256",
          "name": "maxTokensPerVote",
          "type": "uint256"
        },
        {
          "indexed": false,
          "internalType": "uint256",
          "name": "periodIndex",
          "type": "uint256"
        }
      ],
      "name": "DepositBribe",
      "type": "event"
    },
    {
      "anonymous": false,
      "inputs": [
        {
          "indexed": true,
          "internalType": "address",
          "name": "token",
          "type": "address"
        },
        {
          "indexed": false,
          "internalType": "uint256",
          "name": "amount",
          "type": "uint256"
        },
        {
          "indexed": false,
          "internalType": "address",
          "name": "admin",
          "type": "address"
        }
      ],
      "name": "EmergencyWithdrawal",
      "type": "event"
    },
    {
      "anonymous": false,
      "inputs": [
        {
          "indexed": true,
          "internalType": "bytes32",
          "name": "role",
          "type": "bytes32"
        },
        {
          "indexed": true,
          "internalType": "bytes32",
          "name": "previousAdminRole",
          "type": "bytes32"
        },
        {
          "indexed": true,
          "internalType": "bytes32",
          "name": "newAdminRole",
          "type": "bytes32"
        }
      ],
      "name": "RoleAdminChanged",
      "type": "event"
    },
    {
      "anonymous": false,
      "inputs": [
        {
          "indexed": true,
          "internalType": "bytes32",
          "name": "role",
          "type": "bytes32"
        },
        {
          "indexed": true,
          "internalType": "address",
          "name": "account",
          "type": "address"
        },
        {
          "indexed": true,
          "internalType": "address",
          "name": "sender",
          "type": "address"
        }
      ],
      "name": "RoleGranted",
      "type": "event"
    },
    {
      "anonymous": false,
      "inputs": [
        {
          "indexed": true,
          "internalType": "bytes32",
          "name": "role",
          "type": "bytes32"
        },
        {
          "indexed": true,
          "internalType": "address",
          "name": "account",
          "type": "address"
        },
        {
          "indexed": true,
          "internalType": "address",
          "name": "sender",
          "type": "address"
        }
      ],
      "name": "RoleRevoked",
      "type": "event"
    },
    {
      "anonymous": false,
      "inputs": [
        {
          "indexed": false,
          "internalType": "address",
          "name": "_distributor",
          "type": "address"
        }
      ],
      "name": "SetDistributor",
      "type": "event"
    },
    {
      "anonymous": false,
      "inputs": [
        {
          "indexed": false,
          "internalType": "uint256",
          "name": "_fee",
          "type": "uint256"
        }
      ],
      "name": "SetFee",
      "type": "event"
    },
    {
      "anonymous": false,
      "inputs": [
        {
          "indexed": false,
          "internalType": "address",
          "name": "_feeRecipient",
          "type": "address"
        }
      ],
      "name": "SetFeeRecipient",
      "type": "event"
    },
    {
      "anonymous": false,
      "inputs": [
        {
          "indexed": false,
          "internalType": "address",
          "name": "from",
          "type": "address"
        },
        {
          "indexed": false,
          "internalType": "address",
          "name": "to",
          "type": "address"
        }
      ],
      "name": "SetRewardForwarding",
      "type": "event"
    },
    {
      "anonymous": false,
      "inputs": [
        {
          "indexed": true,
          "internalType": "bytes32",
          "name": "rewardIdentifier",
          "type": "bytes32"
        },
        {
          "indexed": true,
          "internalType": "address",
          "name": "token",
          "type": "address"
        },
        {
          "indexed": false,
          "internalType": "uint256",
          "name": "feeAmount",
          "type": "uint256"
        },
        {
          "indexed": false,
          "internalType": "uint256",
          "name": "distributorAmount",
          "type": "uint256"
        }
      ],
      "name": "TransferBribe",
      "type": "event"
    },
    {
      "inputs": [],
      "name": "DEFAULT_ADMIN_ROLE",
      "outputs": [
        {
          "internalType": "bytes32",
          "name": "",
          "type": "bytes32"
        }
      ],
      "stateMutability": "view",
      "type": "function"
    },
    {
      "inputs": [],
      "name": "DEPOSITOR_ROLE",
      "outputs": [
        {
          "internalType": "bytes32",
          "name": "",
          "type": "bytes32"
        }
      ],
      "stateMutability": "view",
      "type": "function"
    },
    {
      "inputs": [],
      "name": "FEE_DIVISOR",
      "outputs": [
        {
          "internalType": "uint256",
          "name": "",
          "type": "uint256"
        }
      ],
      "stateMutability": "view",
      "type": "function"
    },
    {
      "inputs": [],
      "name": "FEE_MAX",
      "outputs": [
        {
          "internalType": "uint256",
          "name": "",
          "type": "uint256"
        }
      ],
      "stateMutability": "view",
      "type": "function"
    },
    {
      "inputs": [],
      "name": "PERMIT2",
      "outputs": [
        {
          "internalType": "contract IPermit2",
          "name": "",
          "type": "address"
        }
      ],
      "stateMutability": "view",
      "type": "function"
    },
    {
      "inputs": [
        {
          "internalType": "bytes32",
          "name": "",
          "type": "bytes32"
        }
      ],
      "name": "bribes",
      "outputs": [
        {
          "internalType": "address",
          "name": "token",
          "type": "address"
        },
        {
          "internalType": "uint256",
          "name": "amount",
          "type": "uint256"
        }
      ],
      "stateMutability": "view",
      "type": "function"
    },
    {
      "inputs": [
        {
          "components": [
            {
              "internalType": "bytes32",
              "name": "proposal",
              "type": "bytes32"
            },
            {
              "internalType": "address",
              "name": "token",
              "type": "address"
            },
            {
              "internalType": "address",
              "name": "briber",
              "type": "address"
            },
            {
              "internalType": "uint256",
              "name": "amount",
              "type": "uint256"
            },
            {
              "internalType": "uint256",
              "name": "maxTokensPerVote",
              "type": "uint256"
            },
            {
              "internalType": "uint256",
              "name": "periods",
              "type": "uint256"
            },
            {
              "internalType": "uint256",
              "name": "periodDuration",
              "type": "uint256"
            },
            {
              "internalType": "uint256",
              "name": "proposalDeadline",
              "type": "uint256"
            },
            {
              "internalType": "uint256",
              "name": "permitDeadline",
              "type": "uint256"
            },
            {
              "internalType": "bytes",
              "name": "signature",
              "type": "bytes"
            }
          ],
          "internalType": "struct Common.DepositBribeParams",
          "name": "_dp",
          "type": "tuple"
        }
      ],
      "name": "depositBribe",
      "outputs": [],
      "stateMutability": "nonpayable",
      "type": "function"
    },
    {
      "inputs": [],
      "name": "distributor",
      "outputs": [
        {
          "internalType": "address",
          "name": "",
          "type": "address"
        }
      ],
      "stateMutability": "view",
      "type": "function"
    },
    {
      "inputs": [
        {
          "internalType": "address",
          "name": "token",
          "type": "address"
        },
        {
          "internalType": "uint256",
          "name": "amount",
          "type": "uint256"
        }
      ],
      "name": "emergencyWithdraw",
      "outputs": [],
      "stateMutability": "nonpayable",
      "type": "function"
    },
    {
      "inputs": [],
      "name": "fee",
      "outputs": [
        {
          "internalType": "uint256",
          "name": "",
          "type": "uint256"
        }
      ],
      "stateMutability": "view",
      "type": "function"
    },
    {
      "inputs": [],
      "name": "feeRecipient",
      "outputs": [
        {
          "internalType": "address",
          "name": "",
          "type": "address"
        }
      ],
      "stateMutability": "view",
      "type": "function"
    },
    {
      "inputs": [
        {
          "internalType": "address",
          "name": "_market",
          "type": "address"
        },
        {
          "internalType": "bytes32",
          "name": "_proposal",
          "type": "bytes32"
        },
        {
          "internalType": "uint256",
          "name": "_proposalDeadline",
          "type": "uint256"
        },
        {
          "internalType": "address",
          "name": "_token",
          "type": "address"
        }
      ],
      "name": "generateBribeVaultIdentifier",
      "outputs": [
        {
          "internalType": "bytes32",
          "name": "id",
          "type": "bytes32"
        }
      ],
      "stateMutability": "pure",
      "type": "function"
    },
    {
      "inputs": [
        {
          "internalType": "address",
          "name": "_market",
          "type": "address"
        },
        {
          "internalType": "address",
          "name": "_token",
          "type": "address"
        },
        {
          "internalType": "uint256",
          "name": "_proposalDeadline",
          "type": "uint256"
        }
      ],
      "name": "generateRewardIdentifier",
      "outputs": [
        {
          "internalType": "bytes32",
          "name": "id",
          "type": "bytes32"
        }
      ],
      "stateMutability": "pure",
      "type": "function"
    },
    {
      "inputs": [
        {
          "internalType": "bytes32",
          "name": "bribeIdentifier",
          "type": "bytes32"
        }
      ],
      "name": "getBribe",
      "outputs": [
        {
          "internalType": "address",
          "name": "token",
          "type": "address"
        },
        {
          "internalType": "uint256",
          "name": "amount",
          "type": "uint256"
        }
      ],
      "stateMutability": "view",
      "type": "function"
    },
    {
      "inputs": [
        {
          "internalType": "bytes32",
          "name": "rewardIdentifier",
          "type": "bytes32"
        }
      ],
      "name": "getBribeIdentifiersByRewardIdentifier",
      "outputs": [
        {
          "internalType": "bytes32[]",
          "name": "",
          "type": "bytes32[]"
        }
      ],
      "stateMutability": "view",
      "type": "function"
    },
    {
      "inputs": [
        {
          "internalType": "bytes32",
          "name": "role",
          "type": "bytes32"
        }
      ],
      "name": "getRoleAdmin",
      "outputs": [
        {
          "internalType": "bytes32",
          "name": "",
          "type": "bytes32"
        }
      ],
      "stateMutability": "view",
      "type": "function"
    },
    {
      "inputs": [
        {
          "internalType": "address",
          "name": "depositor",
          "type": "address"
        }
      ],
      "name": "grantDepositorRole",
      "outputs": [],
      "stateMutability": "nonpayable",
      "type": "function"
    },
    {
      "inputs": [
        {
          "internalType": "bytes32",
          "name": "role",
          "type": "bytes32"
        },
        {
          "internalType": "address",
          "name": "account",
          "type": "address"
        }
      ],
      "name": "grantRole",
      "outputs": [],
      "stateMutability": "nonpayable",
      "type": "function"
    },
    {
      "inputs": [
        {
          "internalType": "bytes32",
          "name": "role",
          "type": "bytes32"
        },
        {
          "internalType": "address",
          "name": "account",
          "type": "address"
        }
      ],
      "name": "hasRole",
      "outputs": [
        {
          "internalType": "bool",
          "name": "",
          "type": "bool"
        }
      ],
      "stateMutability": "view",
      "type": "function"
    },
    {
      "inputs": [
        {
          "internalType": "bytes32",
          "name": "role",
          "type": "bytes32"
        },
        {
          "internalType": "address",
          "name": "account",
          "type": "address"
        }
      ],
      "name": "renounceRole",
      "outputs": [],
      "stateMutability": "nonpayable",
      "type": "function"
    },
    {
      "inputs": [
        {
          "internalType": "address",
          "name": "depositor",
          "type": "address"
        }
      ],
      "name": "revokeDepositorRole",
      "outputs": [],
      "stateMutability": "nonpayable",
      "type": "function"
    },
    {
      "inputs": [
        {
          "internalType": "bytes32",
          "name": "role",
          "type": "bytes32"
        },
        {
          "internalType": "address",
          "name": "account",
          "type": "address"
        }
      ],
      "name": "revokeRole",
      "outputs": [],
      "stateMutability": "nonpayable",
      "type": "function"
    },
    {
      "inputs": [
        {
          "internalType": "address",
          "name": "",
          "type": "address"
        }
      ],
      "name": "rewardForwarding",
      "outputs": [
        {
          "internalType": "address",
          "name": "",
          "type": "address"
        }
      ],
      "stateMutability": "view",
      "type": "function"
    },
    {
      "inputs": [
        {
          "internalType": "bytes32",
          "name": "",
          "type": "bytes32"
        },
        {
          "internalType": "uint256",
          "name": "",
          "type": "uint256"
        }
      ],
      "name": "rewardToBribes",
      "outputs": [
        {
          "internalType": "bytes32",
          "name": "",
          "type": "bytes32"
        }
      ],
      "stateMutability": "view",
      "type": "function"
    },
    {
      "inputs": [
        {
          "internalType": "bytes32",
          "name": "",
          "type": "bytes32"
        }
      ],
      "name": "rewardTransfers",
      "outputs": [
        {
          "internalType": "uint256",
          "name": "feeAmount",
          "type": "uint256"
        },
        {
          "internalType": "uint256",
          "name": "distributorAmountTransferred",
          "type": "uint256"
        },
        {
          "internalType": "uint256",
          "name": "distributorAmountReceived",
          "type": "uint256"
        }
      ],
      "stateMutability": "view",
      "type": "function"
    },
    {
      "inputs": [
        {
          "internalType": "address",
          "name": "_distributor",
          "type": "address"
        }
      ],
      "name": "setDistributor",
      "outputs": [],
      "stateMutability": "nonpayable",
      "type": "function"
    },
    {
      "inputs": [
        {
          "internalType": "uint256",
          "name": "_fee",
          "type": "uint256"
        }
      ],
      "name": "setFee",
      "outputs": [],
      "stateMutability": "nonpayable",
      "type": "function"
    },
    {
      "inputs": [
        {
          "internalType": "address",
          "name": "_feeRecipient",
          "type": "address"
        }
      ],
      "name": "setFeeRecipient",
      "outputs": [],
      "stateMutability": "nonpayable",
      "type": "function"
    },
    {
      "inputs": [
        {
          "internalType": "address",
          "name": "to",
          "type": "address"
        }
      ],
      "name": "setRewardForwarding",
      "outputs": [],
      "stateMutability": "nonpayable",
      "type": "function"
    },
    {
      "inputs": [
        {
          "internalType": "bytes4",
          "name": "interfaceId",
          "type": "bytes4"
        }
      ],
      "name": "supportsInterface",
      "outputs": [
        {
          "internalType": "bool",
          "name": "",
          "type": "bool"
        }
      ],
      "stateMutability": "view",
      "type": "function"
    },
    {
      "inputs": [
        {
          "internalType": "bytes32[]",
          "name": "rewardIdentifiers",
          "type": "bytes32[]"
        }
      ],
      "name": "transferBribes",
      "outputs": [],
      "stateMutability": "nonpayable",
      "type": "function"
    }
  ],
  "bytecode": "0x60a06040523462000045575b62000023620000196200015a565b9291909162000280565b604051612cab620004a982396080518181816102dc01526115110152612cab90f35b6200004f62000055565b6200000b565b50600080fd5b50634e487b7160e01b600052604160045260246000fd5b90601f01601f191681019081106001600160401b038211176200009457604052565b6200009e6200005b565b604052565b90620000ba620000b260405190565b928362000072565b565b805b14156200005557565b90505190620000ba82620000bc565b6001600160a01b031690565b90565b6001600160a01b038116620000be565b90505190620000ba82620000e5565b6080818303126200014a575b6200011c8282620000c7565b92620000e2620001308460208501620000c7565b93620001408160408601620000f5565b93606001620000f5565b6200015462000055565b62000110565b6200017d62003154803803806200017181620000a3565b92833981019062000104565b90919293565b620000e2620000e2620000e29290565b620000e2620f424062000183565b50634e487b7160e01b600052601260045260246000fd5b8115620001c3570490565b620001cd620001a1565b0490565b620000d6620000e2620000e29290565b620000e290620001d1565b90600019905b9181191691161790565b9062000210620000e2620002189262000183565b8254620001ec565b9055565b906001600160a01b0390620001f2565b620000e290620000d6906001600160a01b031682565b620000e2906200022c565b620000e29062000242565b906200026c620000e262000218926200024d565b82546200021c565b620000e2600062000183565b9092916200028d62000193565b620002aa620000e2600292620002a38462000183565b90620001b8565b85101562000394578483116200037557620002c66000620001e1565b6001600160a01b0381166001600160a01b0384161462000355576001600160a01b03166001600160a01b03851614620003365762000312620003189362000320966080526001620001fc565b62000258565b600362000258565b620000ba6200032e62000274565b3390620003f4565b5050505050506200034660405190565b635c187b8d60e01b8152600490fd5b505050505050506200036660405190565b630ed1b8b360e31b8152600490fd5b5050505050506200038560405190565b6358d620b360e01b8152600490fd5b505050505050620003a460405190565b63a51d0c8160e01b8152600490fd5b905b600052602052604060002090565b90620003b5906200024d565b9060ff90620001f2565b90620003ec620000e26200021892151590565b8254620003cf565b90620004096200040582846200048a565b1590565b62000412575050565b620004386001620004328360006200042b8782620003b3565b01620003c3565b620003d9565b3390620004726200046b6200046b7f2f8788117e7eff1d82e926ec794901d17c78024a50270940304540a733656f0d9590565b926200024d565b926200047d60405190565b600090a4565b5460ff1690565b620000e291620004a2916200042b60009182620003b3565b6200048356fe60806040526004361015610018575b610016610717565b005b60003560e01c806301ffc9a7146106ed57806307cd2ffe146106c3578063172becff1461069c5780631aea69ca146106715780631da08b8714610638578063248a9ca31461060e57806328b16a3f146105e35780632c4ef0d5146105bc5780632f2ff15d1461059457806336568abe1461056c578063429c89101461053e57806346904840146105145780635c2a802b146104ed57806369fe0e2d146104c65780636afdd8501461049057806375619ab51461046957806391d148541461042c57806395ccea67146104045780639e93ad8e146103da578063a217fddf146103b0578063a3b0b5a31461037a578063b2d7edb214610352578063bfe109281461030d578063c2624e1e146102c5578063cc6c93881461028f578063d547741f14610267578063ddca3f431461022c578063e74b981b14610205578063e8fa2948146101de578063edcdab77146101a15763f96258c4146101775761000e565b34610194575b61001661018b366004610790565b612736565b0390f35b61019c610717565b61017d565b50346101d1575b6101bb6101b636600461086f565b610c96565b906101906101c860405190565b928392836109c8565b6101d9610717565b6101a8565b50346101f8575b6100166101f3366004610790565b6114d1565b610200610717565b6101e5565b503461021f575b61001661021a366004610790565b611633565b610227610717565b61020c565b503461025a575b61023e366004610a60565b610190610249610c77565b6040515b9182918290815260200190565b610262610717565b610233565b5034610282575b61001661027c3660046109e5565b90610f61565b61028a610717565b61026e565b50346102b8575b6101906102ac6102a736600461086f565b611875565b60405191829182610c66565b6102c0610717565b610296565b5034610300575b6102d7366004610a60565b6101907f0000000000000000000000000000000000000000000000000000000000000000610249565b610308610717565b6102cc565b5034610345575b61031f366004610a60565b61019061032a610c00565b6040515b918291826001600160a01b03909116815260200190565b61034d610717565b610314565b503461036d575b610016610367366004610bb9565b90612aaf565b610375610717565b610359565b50346103a3575b61038c366004610a60565b610190600080516020612c48833981519152610249565b6103ab610717565b610381565b50346103cd575b6103c2366004610a60565b610190610249610b65565b6103d5610717565b6103b7565b50346103f7575b6103ec366004610a60565b610190610249610b53565b6103ff610717565b6103e1565b503461041f575b610016610419366004610b12565b90612c3d565b610427610717565b61040b565b503461045c575b61019061044a6104443660046109e5565b90610cff565b60405191829182901515815260200190565b610464610717565b610433565b5034610483575b61001661047e366004610790565b6116b4565b61048b610717565b610470565b50346104b9575b6104a2366004610a60565b6101906104ad610af1565b60405191829182610b02565b6104c1610717565b610497565b50346104e0575b6100166104db36600461086f565b611587565b6104e8610717565b6104cd565b5034610507575b610016610502366004610a96565b611ebb565b61050f610717565b6104f4565b5034610531575b610526366004610a60565b61019061032a610a73565b610539610717565b61051b565b503461055f575b610190610249610556366004610a16565b929190916116fb565b610567610717565b610545565b5034610587575b6100166105813660046109e5565b90610fd0565b61058f610717565b610573565b50346105af575b6100166105a93660046109e5565b90610d5d565b6105b7610717565b61059b565b50346105d6575b6101bb6105d136600461086f565b6117b0565b6105de610717565b6105c3565b5034610601575b6101906102496105fb3660046108f5565b9061098f565b610609610717565b6105ea565b503461062b575b61019061024961062636600461086f565b610d1e565b610633610717565b610615565b5034610664575b61019061065561065036600461086f565b6108a7565b604051919391938493846108d4565b61066c610717565b61063f565b503461068f575b610190610249610689366004610831565b9161174b565b610697610717565b610678565b50346106b6575b6100166106b1366004610790565b611474565b6106be610717565b6106a3565b50346106e0575b61019061032a6106db366004610790565b610807565b6106e8610717565b6106ca565b503461070a575b61019061044a610705366004610740565b610cb0565b610712610717565b6106f4565b50600080fd5b6001600160e01b031981165b141561071757565b9050359061073e8261071d565b565b906107549160208183031261075757610731565b90565b61075f610717565b610731565b9052565b6001600160a01b031690565b6001600160a01b038116610729565b9050359061073e82610774565b90610754916020818303126107a457610783565b6107ac610717565b610783565b61075490610768906001600160a01b031682565b610754906107b1565b610754906107c5565b906107e1906107ce565b600052602052604060002090565b610754916008021c610768565b9061075491546107ef565b610754906108196007916000926107d7565b6107fc565b80610729565b9050359061073e8261081e565b9091606082840312610862575b61075461084b8484610783565b936108598160208601610783565b93604001610824565b61086a610717565b61083e565b906107549160208183031261088357610824565b61088b610717565b610824565b906107e1565b6107549081565b6107549054610896565b6108b2906006610890565b6108bb8161089d565b9161075460026108cd6001850161089d565b930161089d565b90815260608101939261073e9290916040916108f1906020830152565b0152565b919061075490604084820312610919575b6109108185610824565b93602001610824565b610921610717565b610906565b50634e487b7160e01b600052603260045260246000fd5b61095d60019161094b815490565b84101561096657600052602060002090565b91020190600090565b61096e610926565b600052602060002090565b610754916008021c81565b906107549154610979565b61099d600591600092610890565b906109a6825490565b8310156109c15750610754916109bb9161093d565b90610984565b9250505080fd5b6001600160a01b03909116815260408101929161073e9160200152565b919061075490604084820312610a09575b610a008185610824565b93602001610783565b610a11610717565b6109f6565b608081830312610a53575b610a2b8282610783565b92610754610a3c8460208501610824565b93610a4a8160408601610824565b93606001610783565b610a5b610717565b610a21565b6000910312610a6b57565b61073e610717565b610754600060026107fc565b9081610140910312610a8e5790565b610754610717565b9061075491602081830312610acc575b80359067ffffffffffffffff8211610abf575b01610a7f565b610ac7610717565b610ab9565b610ad4610717565b610aa6565b6107546e22d473030f116ddee9f6b43ac78ba36107ce565b610754610ad9565b610764906107ce565b60208101929161073e9190610af9565b919061075490604084820312610b2d575b6109108185610783565b610b35610717565b610b23565b6107546107546107549290565b610754620f4240610b3a565b610754610b47565b6107546000610b3a565b610754610b5b565b909182601f83011215610bac575b602082359267ffffffffffffffff8411610b9f575b019260208302840111610a6b57565b610ba7610717565b610b90565b610bb4610717565b610b7b565b90610be291602081830312610bf3575b80359067ffffffffffffffff8211610be6575b01610b6d565b9091565b610bee610717565b610bdc565b610bfb610717565b610bc9565b610754600060036107fc565b0190565b90610c30610c29610c1f845190565b8084529260200190565b9260200190565b9060005b818110610c415750505090565b909192610c5e610c576001928651815260200190565b9460200190565b929101610c34565b602080825261075492910190610c10565b61075460006001610984565b61075490610768565b6107549054610c83565b610ca1906004610890565b9061075460016108cd84610c8c565b637965db0b60e01b6001600160e01b0319821614908115610ccf575090565b61075491506001600160e01b0319166301ffc9a760e01b1490565b610754905b60ff1690565b6107549054610cea565b61075491610d1991610d1360009182610890565b016107d7565b610cf5565b6001610d3761075492610d2f600090565b506000610890565b0161089d565b9061073e91610d53610d4e82610d1e565b610d67565b9061073e91611020565b9061073e91610d3d565b61073e903390610eb7565b61075490610b3a565b918091926000905b828210610d9b575011610d94575050565b6000910152565b91508060209183015181860152018291610d83565b610c0c610dc892602092610dc2815190565b94859290565b93849101610d7b565b610e0f6107549392610e09610e09937f416363657373436f6e74726f6c3a206163636f756e7420000000000000000000815260170190565b90610db0565b7001034b99036b4b9b9b4b733903937b6329607d1b815260110190565b601f01601f191690565b50634e487b7160e01b600052604160045260246000fd5b90601f01601f1916810190811067ffffffffffffffff821117610e6f57604052565b610e77610e36565b604052565b610e9d610e2c602093610c0c93610e91815190565b80835293849260200190565b95869101610d7b565b602080825261075492910190610e7c565b90610ec9610ec58284610cff565b1590565b610ed1575050565b610f42925090610754610eef610ee9610f29946113d5565b92610d72565b610f04602091610efe83610b3a565b90611275565b92610f1d610f1160405190565b94859384019283610dd1565b90810382520382610e4d565b6040515b62461bcd60e51b815291829160048301610ea6565b0390fd5b9061073e91610f57610d4e82610d1e565b9061073e91611096565b9061073e91610f46565b15610f7257565b5060405162461bcd60e51b815260206004820152602f60248201527f416363657373436f6e74726f6c3a2063616e206f6e6c792072656e6f756e636560448201526e103937b632b9903337b91039b2b63360891b6064820152608490fd5b61073e9190610ff1610fe133610768565b6001600160a01b03841614610f6b565b611096565b9060ff905b9181191691161790565b9061101561075461101c92151590565b8254610ff6565b9055565b9061102e610ec58284610cff565b611036575050565b611050600161104b836000610d138782610890565b611005565b33906110866110806110807f2f8788117e7eff1d82e926ec794901d17c78024a50270940304540a733656f0d9590565b926107ce565b9261109060405190565b600090a4565b906110a18183610cff565b6110a9575050565b6110bd600061104b8382610d138782610890565b33906110866110806110807ff6391f5c32d9c69d2a47ea670b442974b53935d1edc7fd64eb21e047a839171b9590565b50634e487b7160e01b600052601160045260246000fd5b9061110e565b9190565b908060001904821181151516611122570290565b61112a6110ed565b0290565b8119811161113a570190565b610c0c6110ed565b9061073e61114f60405190565b9283610e4d565b610c0c60209167ffffffffffffffff811161117557601f01601f191690565b610e2c610e36565b9061118f61118a83611156565b611142565b918252565b369037565b9061073e6111af6111a98461117d565b93611156565b601f190160208401611194565b9060016020916111ca845190565b8110156111d8575b02010190565b6111e0610926565b6111d2565b60019080156111f2570390565b6111fa6110ed565b0390565b610cef6107546107549290565b6107549061121f61110a6107549460ff1690565b901c90565b1561122b57565b5060405162461bcd60e51b815280610f42600482016020808252818101527f537472696e67733a20686578206c656e67746820696e73756666696369656e74604082015260600190565b91906002906112a66112a16112928361128d86610b3a565b611104565b61129b85610b3a565b9061112e565b611199565b9160009160306112be6112b885610b3a565b866111bc565b536112f66112ed600f60fb1b9261128d6001958695881a6112e76112e188610b3a565b8b6111bc565b53610b3a565b61129b83610b3a565b915b611319575b5050610754929361131361110a61075493610b3a565b14611224565b909461132482610b3a565b8611156113a35761139061138a839261136d6113506f181899199a1a9b1b9c1cb0b131b232b360811b90565b61135a600f610b3a565b83166010811015611396575b1a60f81b90565b861a6113798a896111bc565b5361138460046111fe565b9061120b565b966111e5565b916112f8565b61139e610926565b611366565b946112fd565b6107549081906001600160a01b031681565b61075460146111fe565b6107546107546107549260ff1690565b6113f26113ed610754926113e7606090565b506107c5565b6113a9565b610efe6113fd6113bb565b6113c5565b61073e90611411610d4e610b5b565b61142c565b6107686107546107549290565b61075490611416565b6114396107686000611423565b6001600160a01b038216146114605761073e90600080516020612c48833981519152611020565b505060405163e6c4247b60e01b8152600490fd5b61073e90611402565b61073e9061148c610d4e610b5b565b600080516020612c48833981519152906114a9610ec58284610cff565b6114b65761073e91611096565b5050506114c260405190565b633cc50b4560e01b8152600490fd5b61073e9061147d565b61073e906114e9610d4e610b5b565b61150f565b9060001990610ffb565b9061150861075461101c92610b3a565b82546114ee565b7f00000000000000000000000000000000000000000000000000000000000000008111611573576115418160016114f8565b61156e7e172ddfc5ae88d08b3de01a5a187667c37a5a53989e8c175055cb6c993792a79161024d60405190565b0390a1565b50506040516358d620b360e01b8152600490fd5b61073e906114da565b61073e9061159f610d4e610b5b565b6115ca565b906001600160a01b0390610ffb565b906115c361075461101c926107ce565b82546115a4565b6115d76107686000611423565b6001600160a01b0382161461161f576115f18160026115b3565b61156e7f2e979f80fe4d43055c584cf4a8467c55875ea36728fc37176c05acd784eb7a739161032e60405190565b5050604051630ed1b8b360e31b8152600490fd5b61073e90611590565b61073e9061164b610d4e610b5b565b6116586107686000611423565b6001600160a01b038216146116a0576116728160036115b3565b61156e7ff52f1295a5bd82818185311d8284477532c0eba12fd2ba17314486d3a8f6810d9161032e60405190565b5050604051635c187b8d60e01b8152600490fd5b61073e9061163c565b610764906001600160a01b031660601b90565b926116f36020610c0c946116ed6014886116ed829b9a86996116bd565b01918252565b0180926116bd565b610f1d61171d939461170b600090565b506040519586946020860194856116d0565b61172f611728825190565b9160200190565b2090565b601493926116f385836116ed602095610c0c976116bd565b909161171d91610f1d61175d60405190565b948593602085019384611733565b6107546040611142565b9061073e6117a0600161178661176b565b94610d3761179382610c8c565b6001600160a01b03168752565b6020840152565b61075490611775565b6117c76117cc916117bf600090565b506004610890565b6117a7565b9061075460206117e384516001600160a01b031690565b93015190565b906118046117f8610c1f845490565b92600052602060002090565b9060005b8181106118155750505090565b90919261183961183260019261182a8761089d565b815260200190565b9460010190565b929101611808565b90610754916117e9565b9061073e6118659261185c60405190565b93848092611841565b0383610e4d565b6107549061184b565b61188c61075491611884606090565b506005610890565b61186c565b61073e906118ac600080516020612c48833981519152610d67565b611a5d565b3561075481610774565b356107548161081e565b9050519061073e8261081e565b90610754916020818303126118e6576118c5565b6118ee610717565b6118c5565b506040513d6000823e3d90fd5b903590601e193682900301821215611944575b01602081359167ffffffffffffffff8311611937575b0191368290038313610a6b57565b61193f610717565b611929565b61194c610717565b611913565b8181106111f2570390565b50634e487b7160e01b600052601260045260246000fd5b811561197d570490565b61198561195c565b0490565b8115611993570690565b61199b61195c565b0690565b9160001960089290920291821b911b610ffb565b91906119c261075461101c9390565b90835461199f565b906119f261073e92805490680100000000000000008210156119f8575b60018201815561093d565b906119b3565b611a00610e36565b6119e7565b9194611a566108f192989795611a4f60a096611a4861073e9a611a3860c08a019e60008b01906001600160a01b03169052565b6001600160a01b03166020890152565b6040870152565b6060850152565b6080830152565b906020820191611a6c836118b1565b90611a776000611423565b91611a936001600160a01b0384165b916001600160a01b031690565b14611e9f576060810193611aa6856118bb565b611ab361110a6000610b3a565b14611e82576040820194611ac6866118b1565b611ad86001600160a01b038616611a86565b14611e6457611be390611af5611af0611af0856118b1565b6107ce565b906370a082318489611b06306107ce565b936020611b1260405190565b8097611b1e8760e01b90565b82526001600160a01b038816600483015260249082905afa958615611e57575b600096611e2f575b50916020939185611bc99694611b69611b648d610120810190611900565b905090565b611b7661110a6000610b3a565b1115611e095750505050611b898861242f565b611bb2611b9b611af0611af08a6118b1565b91611ba560405190565b9586948593849360e01b90565b83526001600160a01b031660048301526024820190565b03915afa908115611dfc575b600091611dde575b50611951565b9160009460015b15611dba575b611d6560009686611c1b611c0660e087016118bb565b61129b611c1560c089016118bb565b85611104565b858b611cde828a8c611c93611c43611c32856118bb565b89611c3c866118b1565b91336116fb565b9160a0611c54610754856004610890565b9801611c68611c62826118bb565b83611973565b918c611c7761110a6000610b3a565b6000911415611dae5750611c8d61129b926118bb565b90611989565b97611cb5611cac8a611ca760018b0161089d565b61112e565b600189016114f8565b611cd1611a86611cc489610c8c565b926001600160a01b031690565b14611d6b575b50506118bb565b91611cfd6001611cf6611cf08d6118b1565b946118b1565b920161089d565b91611d5c87611d0e60808d016118bb565b7f9350247ae5f8389ed8487daba15bc7f2173887676a95759508e1844aae0dfdc795611d49611d43611d3f336107ce565b9990565b99610b3a565b99611d5360405190565b96879687611a05565b0390a460010190565b95611bea565b611da261075483611d87611d81611da7966118b1565b8a6115b3565b611d9c8a611d966005936118b1565b3361174b565b90610890565b6119ca565b8a38611cd7565b905061129b9150610b3a565b611dc961075460a084016118bb565b861015611dd557611bf0565b95505050505050565b611df69150611ded3d82610e4d565b3d8101906118d2565b38611bdd565b611e046118f3565b611bd5565b611e24611e1e611cf0611af0611e2a976118b1565b916118bb565b92611f1b565b611b89565b85611bc99694929750611e4a6020969492611ded3d82610e4d565b9792945095509193611b46565b611e5f6118f3565b611b3e565b505050505050611e7360405190565b637bc101ab60e11b8152600490fd5b5050505050611e9060405190565b63162908e360e11b8152600490fd5b50505050611eac60405190565b63c1ab6dc160e01b8152600490fd5b61073e90611891565b611edd611ed76107549263ffffffff1690565b60e01b90565b6001600160e01b03191690565b6001600160a01b03909116815260608101939261073e9290916040916108f1905b6001600160a01b03166020830152565b90611f6090611f5161073e95600495611f376323b872dd611ec4565b93611f4160405190565b9788956020870190815201611eea565b60208201810382520383610e4d565b612036565b611f6f602061117d565b7f5361666545524332303a206c6f772d6c6576656c2063616c6c206661696c6564602082015290565b610754611f65565b801515610729565b9050519061073e82611fa0565b9061075491602081830312611fc957611fa8565b611fd1610717565b611fa8565b15611fdd57565b5060405162461bcd60e51b815260206004820152602a60248201527f5361666545524332303a204552433230206f7065726174696f6e20646964206e6044820152691bdd081cdd58d8d9595960b21b6064820152608490fd5b61073e91612046612055926107ce565b9061204f611f98565b91612093565b805161206461110a6000610b3a565b14908115612073575b50611fd6565b61208d91506020612082825190565b818301019101611fb5565b3861206d565b61075492916120a26000610b3a565b91612123565b156120af57565b5060405162461bcd60e51b815260206004820152602660248201527f416464726573733a20696e73756666696369656e742062616c616e636520666f6044820152651c8818d85b1b60d21b6064820152608490fd5b3d1561211e576121133d61117d565b903d6000602084013e565b606090565b90600061075494938192612135606090565b5061214c612142306107ce565b83903110156120a8565b60208101905191855af161215e612104565b916121b1565b1561216b57565b5060405162461bcd60e51b815260206004820152601d60248201527f416464726573733a2063616c6c20746f206e6f6e2d636f6e74726163740000006044820152606490fd5b9192606091156121e657505081516121cc61110a6000610b3a565b146121d5575090565b6121e1610754916121f3565b612164565b90939261073e9250612205565b3b61220161110a6000610b3a565b1190565b915061220f825190565b61221c61110a6000610b3a565b111561222b5750805190602001fd5b604051610f429250610f2d565b9050519061073e82610774565b65ffffffffffff8116610729565b9050519061073e82612245565b9091606082840312612291575b61075461227a8484612238565b936122888160208601612253565b93604001612253565b612299610717565b61226d565b6001600160a01b03909116815260608101939261073e9290916040916122c390611f0b565b01906001600160a01b03169052565b6107546080611142565b6122e96107546107549290565b65ffffffffffff1690565b6107546060611142565b80516001600160a01b0316825261073e919060609081906020818101516001600160a01b03169085015260408181015165ffffffffffff1690850152015165ffffffffffff16910152565b9060a0604061073e93612364600082015160008601906122fe565b60208101516001600160a01b031660808501520151910152565b90826000939282370152565b9190610e2c816123a181610c0c9560209181520190565b809561237e565b6123d861075495939492946123ce61010084019660008501906001600160a01b03169052565b6020830190612349565b60e081850391015261238a565b6122c361073e9461241f60609498979561240f608086019a60008701906001600160a01b03169052565b6001600160a01b03166020850152565b6001600160a01b03166040830152565b61243a611af0610ad9565b63927da10591604081019161244e836118b1565b9160208101906060612485612462846118b1565b9761249061246f306107ce565b809a61247a60405190565b998a95869560e01b90565b85526004850161229e565b0381865afa938415612689575b600094612668575b50632b67b570946124b5816118b1565b916124bf846118b1565b9060608101966124ce886118bb565b6124d7906126f3565b65ffffffffffff906124e76122d2565b6001600160a01b0390951685526001600160a01b0316602085015261250b906122dc565b65ffffffffffff16604084015265ffffffffffff16606083015261253261010082016118bb565b61253a6122f4565b9283526001600160a01b038a1660208401526040830152610120810161255f91611900565b949093863b1561258d60009a6125986125ec998d996125f7988b9661265b575b604051978896879660e01b90565b8652600486016123a8565b0381838b5af1801561264e575b61263a575b506125d36125cd6125c86125c26336c78516966118b1565b996118bb565b6126f3565b916118b1565b90863b1561262d575b604051998a988997889660e01b90565b8652600486016123e5565b03925af18015612620575b6126095750565b61073e906126173d82610e4d565b3d810190610a60565b6126286118f3565b612602565b612635610717565b6125dc565b612648906126173d82610e4d565b386125aa565b6126566118f3565b6125a5565b612663610717565b61257f565b6126819194506126783d82610e4d565b3d810190612260565b9491506124a5565b6126916118f3565b61249d565b1561269d57565b5060405162461bcd60e51b815260206004820152602760248201527f53616665436173743a2076616c756520646f65736e27742066697420696e20316044820152663630206269747360c81b6064820152608490fd5b6107549061271261270a6001600160a01b036113a9565b821115612696565b611416565b6001600160a01b03909116815260408101929161073e916020906122c3565b339061274c816127478460076107d7565b6115b3565b7fbbd6eb1e2586cc8ea8e80aa1ccf25590beffdd2cb73367b5ac49214505bb48c49161156e61277a60405190565b92839283612717565b9061073e91612793610d4e610b5b565b6127c8565b916020918110156127a857020190565b6127b0610926565b020190565b90815260408101929161073e9160200152565b9080916000936127d785610b3a565b8414612a925760005b845b811015612a8a576127fc6127f7828686612798565b6118bb565b60059061281061280c8284610890565b5490565b61281c61110a8a610b3a565b14612a6a5761282f610754826006610890565b9061285b8961285561284f6109bb8361284a8760049a610890565b61093d565b86610890565b01610c8c565b9161286582612afa565b909460018301916128758361089d565b8114612a3e57600261299f888f612a049a989688966128d16129b4976127e29f9d9b9461291f9501936128cc6128b36128ad8761089d565b89611951565b976128c66128c08461089d565b85611951565b966114f8565b6114f8565b6128da8a6107ce565b916128e4836107ce565b906370a082319360206128f76003610c8c565b604051809881926129088a60e01b90565b83526001600160a01b031688830190815260200190565b0381865afa958615612a31575b600096612a0b575b509061296191612951602096979861294b8c610c8c565b83612ab9565b61295b6003610c8c565b90612ab9565b61298861296e6003610c8c565b94611bc961297b60405190565b9687958694859460e01b90565b845283016001600160a01b03909116815260200190565b92016129ae83611ca78361089d565b906114f8565b6129e56129df7fb14baddc4b3d8807f1d5dfe595f14ed9e87fcdb8d45909968b5a64f952e399fd9390565b936107ce565b936129fb6129f260405190565b928392836127b5565b0390a360010190565b90506127e0565b602095965090612951612a266129619493611ded3d82610e4d565b979650509091612934565b612a396118f3565b61292c565b509950505050505050505050610f429150612a5860405190565b636e997d6760e11b8152918291820190565b5050505050505050612a7b60405190565b6307e1fae360e31b8152600490fd5b509350505050565b5050505050612aa060405190565b631ec5aa5160e01b8152600490fd5b9061073e91612783565b611f60600492611f5161073e95612ad363a9059cbb611ec4565b92612add60405190565b96879460208601908152016109c8565b90602080916111ca845190565b612b0a61188c6000926005610890565b8192612b14825190565b92935b835b851015612b5457612b4c612b45612b199261129b6001610d376004611d9c612b418d8c612aed565b5190565b9560010190565b949050612b17565b9350915050610754612b7a612b6c611c15600161089d565b612b74610b47565b90611973565b8093611951565b9061073e91612b91610d4e610b5b565b612bab565b90815260408101929161073e916020906122c3565b6000612bb961076882611423565b6001600160a01b03831614611e9f57612bd190610b3a565b8214612c3157612be0816107ce565b612bec83338093612ab9565b612c167f3ab9db27a4cdd8c603a752b62d5fbd93b4b3509fe2596708e9688e42bbac3576926107ce565b92612c2c612c2360405190565b92839283612b96565b0390a2565b505050611e9060405190565b9061073e91612b8156fe8f4f2da22e8ac8f11e15f9fc141cddbb5deea8800186560abb6e68c5496619a9a36469706673582212201ce318eaccfa6af2bed5640c13f2afb68735377e329b38ab9d38bd1beadc29ef6c6578706572696d656e74616cf564736f6c634300080c0041",
  "linkReferences": {},
  "deployedLinkReferences": {}
}